{
  "_format": "hh-sol-artifact-1",
  "contractName": "Wallet",
  "sourceName": "contracts/Wallet.sol",
  "abi": [
    {
      "inputs": [],
      "stateMutability": "nonpayable",
      "type": "constructor"
    },
    {
      "anonymous": false,
      "inputs": [],
      "name": "MintSmartTokensForTokens",
      "type": "event"
    },
    {
      "anonymous": false,
      "inputs": [
        {
          "indexed": true,
          "internalType": "address",
          "name": "sender",
          "type": "address"
        },
        {
          "indexed": false,
          "internalType": "uint256",
          "name": "amount",
          "type": "uint256"
        },
        {
          "indexed": false,
          "internalType": "uint256",
          "name": "balance",
          "type": "uint256"
        }
      ],
      "name": "Receive",
      "type": "event"
    },
    {
      "anonymous": false,
      "inputs": [
        {
          "indexed": false,
          "internalType": "address",
          "name": "_tokenAddr",
          "type": "address"
        }
      ],
      "name": "SetTokenContractAddress",
      "type": "event"
    },
    {
      "inputs": [],
      "name": "mintSmartTokensForTokens",
      "outputs": [],
      "stateMutability": "nonpayable",
      "type": "function"
    },
    {
      "inputs": [],
      "name": "owner",
      "outputs": [
        {
          "internalType": "address payable",
          "name": "",
          "type": "address"
        }
      ],
      "stateMutability": "view",
      "type": "function"
    },
    {
      "inputs": [
        {
          "internalType": "address",
          "name": "_tokenAddr",
          "type": "address"
        }
      ],
      "name": "setTokenContractAddress",
      "outputs": [],
      "stateMutability": "nonpayable",
      "type": "function"
    },
    {
      "stateMutability": "payable",
      "type": "receive"
    }
  ],
  "bytecode": "0x608060405234801561001057600080fd5b50336000806101000a81548173ffffffffffffffffffffffffffffffffffffffff021916908373ffffffffffffffffffffffffffffffffffffffff1602179055506103e6806100606000396000f3fe6080604052600436106100385760003560e01c80636302fa7d1461009c5780638da5cb5b146100b3578063b23d4854146100de57610097565b36610097573373ffffffffffffffffffffffffffffffffffffffff167f7baf877f743c7240b0ee6b03d05a9d82c1d5b9c590beb886830f6f8edd07d8813447604051610085929190610291565b60405180910390a2610095610107565b005b600080fd5b3480156100a857600080fd5b506100b1610107565b005b3480156100bf57600080fd5b506100c86101b7565b6040516100d591906102fb565b60405180910390f35b3480156100ea57600080fd5b5061010560048036038101906101009190610359565b6101db565b005b600160009054906101000a900473ffffffffffffffffffffffffffffffffffffffff1673ffffffffffffffffffffffffffffffffffffffff16631249c58b6040518163ffffffff1660e01b8152600401600060405180830381600087803b15801561017157600080fd5b505af1158015610185573d6000803e3d6000fd5b505050507f37cbc241ce82bd375b6bf6baab54838c229a2b43ad22127c80237293ad779ef960405160405180910390a1565b60008054906101000a900473ffffffffffffffffffffffffffffffffffffffff1681565b80600160006101000a81548173ffffffffffffffffffffffffffffffffffffffff021916908373ffffffffffffffffffffffffffffffffffffffff1602179055507ff8ec34360541dfde83874b0ede9317a3bfbe5c3c6be20cff8c24179cec5579ee600160009054906101000a900473ffffffffffffffffffffffffffffffffffffffff1660405161026d9190610395565b60405180910390a150565b6000819050919050565b61028b81610278565b82525050565b60006040820190506102a66000830185610282565b6102b36020830184610282565b9392505050565b600073ffffffffffffffffffffffffffffffffffffffff82169050919050565b60006102e5826102ba565b9050919050565b6102f5816102da565b82525050565b600060208201905061031060008301846102ec565b92915050565b600080fd5b6000610326826102ba565b9050919050565b6103368161031b565b811461034157600080fd5b50565b6000813590506103538161032d565b92915050565b60006020828403121561036f5761036e610316565b5b600061037d84828501610344565b91505092915050565b61038f8161031b565b82525050565b60006020820190506103aa6000830184610386565b9291505056fea26469706673582212203bb0d1d2b9353db67d47a086687400593651686c8cb7625b3c4f59b56ec9564e64736f6c63430008110033",
  "linkReferences": {},
  "deployedLinkReferences": {}
}